:104000005542200135D0085A82457230314000397E
:104010003F406A000F9308249242723020012F83A0
:104020009F4F1EDA0011F8233F40081F0F9307240B
:104030009242723020011F83CF436A11F92331501D
:10404000EEFFB0124A68474F3D4022003E40FF005D
:104050003F408C18B012A4C9F243ED2EF2434F300A
:10406000B240805A2001A242600182432E01A24246
:10407000800182431E01B24020026001B240200153
:104080008001F24084FF5700C2435800B240004014
:1040900082013B400C003D4000080E430C4E0CDDFD
:1040A000594257000A4C8A107AF0070079F0F8FF5D
:1040B0004AD9C24A5700C24C5600794003000A430D
:1040C00008430F3C18429001385282489201B2F0E6
:1040D000FEFF820192B38201FD271F427001084A50
:1040E0000A4F7953EF230A883A900104012C0E4CB1
:1040F0000D113B53D3230F4E3FF0E0003F90E00003
:1041000002203EF0E0FF5C4257000D4E8D107DF026
:1041100007007CF0F8FF4DDCC24D5700C24E560040
:104120005E4257007EF007007ED080FFC24E5700EF
:10413000E2425800F2F0FDFF000082437001B240FD
:104140000202600182439001B240020180011E42DE
:1041500060013EF0CFFF3ED02000824E60011E4243
:1041600080013EF0CFFF3ED02000824E8001C2434E
:104170002600C2432E00C2431B00C2431F00C2439D
:104180003300C2433700C2432100F240E0FF220067
:10419000F24030002900F2407B002A00C24319009F
:1041A000F240F1FF1A00F240DDFF1D00F240FDFF7A
:1041B0001E00F2433100F2433200C2433500F243A5
:1041C0003600C2432500C2432D001F4270011E422B
:1041D00070010E8F3E900128FA2BE2D31A00F2D222
:1041E0001A00F2D080FF1E00F2D010001E00F2D0A4
:1041F00080FF1D00F2D010001D0003430343F2F0C6
:10420000EFFF1D00F2F0F7FF19005F43B012DA5024
:104210004F43B012DA505F43B012DA505F43B0122E
:10422000DA505F43B012DA504F43B012DA504F43C6
:10423000B012DA505F43B012DA50F2D010001D0015
:10424000F2D21900E2D31900F2D010003200F2D0FD
:1042500020003200F2D040003200F2D010003100D5
:10426000F2D020003100F2D040003100B012D6C2AE
:104270004F93FC23F243112FC2434C1BC2434E1BEE
:10428000F2400A002427C243E21AC2433E1BC24343
:10429000022F82436C30C2433230C2434C25B012ED
:1042A0007450C243CB24C243CA24C2436A1182431E
:1042B0005030B240501BCE18B240C61BD018B2408E
:1042C0003C1CD218B240B21CD418B240281DD618DB
:1042D000F24005007C18C2432527B240DC26661850
:1042E000B240E4266818B240EC266A18F240030097
:1042F000B218C2436E30B2403430062FB2403C3068
:10430000082FB24044300A2FF2400300BC18C243C9
:1043100083183C4054300D430E4D0E5E0E5E3E50F1
:10432000F4268C4E00001D532C533D900C00F423BA
:10433000F2400C009E1DC2438C2F3D403C270E4393
:10434000021232C20343824E3201B2408C00380165
:104350001F423A0132413F5076278D4F00001E53D5
:104360002D533E900C00EC23F2400C009F1DC243E5
:10437000DC1AB2436C18C2436E18B2437018C243C1
:104380007218B2437418C2437618B2437818C24305
:104390007A18B0127681C24E182EB240602E4C1898
:1043A000F2F0EFFF2200E2D21E00F2F0FDFF1E004D
:1043B000B2F0EFFF8601B24000408601B012E4483F
:1043C0001F4268111F53824FD41A8243D61AF243F8
:1043D000E81AC2435A27C2435B27C2435C27C24341
:1043E0005D27C2435E27E2D21E00F2D040001E00CD
:1043F000F2D020001E0092424811441B1B4268115B
:10440000C2436227F24012006327F2406D00642726
:10441000F24045006527F24050006627C2436727F7
:10442000C2436827C24B6927D2424611C01AC24311
:10443000C11AF2401F005827F240190075273E406C
:1044400062270D4E3D5007000C436F4EEE4D0000AD
:10445000CD4F00001C531E533D532C92F623D243E4
:10446000B518D243A42FD243C31AD2436027824B3C
:10447000C824B24022007030B2F0EFFF8201B24097
:1044800000408201B012D6C24F93FC234F47B012B6
:104490005C6832D2B0124A684E4FF2900A0024276C
:1044A0000624E292DD180324B0125C68073C4F4EEC
:1044B000B0125C687F401B00B01264683D40090088
:1044C0000E433F40C81AB012A4C93C4003003D400F
:1044D0001C003E40EA1A3F40C224B012884D3E40C4
:1044E00038543F40C224B012E04DB01234923D40E7
:1044F00010000E430F412F53B012A4C90E412E538A
:104500003F40FED9B012C24A1B4268110F4B8F10B8
:104510004F4F4E4B8E100EDF814E10003D4010006D
:104520000E412E533F40D224B012B0C78293DA24FA
:1045300013208293DC2410208293DE240D20824BF2
:10454000C824B0124A68824B441BB0125C68B01297
:104550003493D243D6110C3C8243C824B0124A682B
:104560008243441BB0125C68B0123493C243D6112C
:10457000D243D811B012308EB2900B0068110920CE
:10458000D243CC11D243C611D243DC119242661100
:104590005411C293C8110220B0123E76B012349268
:1045A000B240162E5030B0124A684A4F863CC29331
:1045B00056117724B2B0100062010820B2B010008A
:1045C00064010420B2B01000660107241E4260019D
:1045D0003EF000033E9000022E245F4204003FB0F4
:1045E000C00005245F4271003FF0200026205F429A
:1045F00005003FB0300005245F4279003FF0200005
:104600001E205F4270001FF31C245F4271003FF0C8
:1046100020001A245F4272003FF0200018245F42FD
:1046200070002FF217245F4270003FF02000152029
:104630007E400500133C6E43113C6E430F3C6E43BD
:104640000D3C7E4005000A3C7E400500073C7E4054
:104650000500043C7E400500013C6E43B2B01000F2
:10466000A0011924B2B01000A2010524B2B2A20127
:104670000F246E43103C1F42A2013FB000040B24E4
:104680001D4260013DF000033D9000020420023C09
:104690004E43013C6E437E90050001286E42C24E9F
:1046A000E6115E42E6110E5E1E4E06DA3ED2814EE5
:1046B000000022D132C203430343F293ED2E772749
:1046C000B01226634B4F7F9372274F4AB0125C683B
:1046D0004F4BB0128CAD673F32D0F000FD3F304001
:1046E0007ED30B120A1209120812071206120512C3
:1046F00004120B4F064E084D054C0943033C094F6D
:104700001B4B04000B9322240F491F5B0200069FE2
:10471000F62F0743183C044604891A4B02000A840A
:10472000089A012C0A480D4A2E4B0E540F45B01220
:10473000B0C7045A0954065A075A088A055A1B4B2F
:1047400004000B9304241893E637013C07430F47FA
:104750003441354136413741384139413A413B4195
:1047600030410E43043C1E5F02001F4F04000F93B4
:10477000FA230F4E30418E4D00008E4C02008E4FBA
:10478000040030410B120A12091208120B4F0F4E8F
:104790000A4D084C033C0F8E1B4B04001E4B0200BD
:1047A0000F9EF92F103C194B0200098F0A99012C1A
:1047B000094A0D490E482F5BB012B0C708590A8943
:1047C0001B4B04000F430B9302241A93EC370F4347
:1047D000384139413A413B4130410B120A1209122A
:1047E000081207120612051204120D4F0C430E4355
:1047F0000F431E3C144D0200049318242B4D0A4312
:10480000133C1AB30820654B85100CD5054A155387
:1048100005940820023C654B0CD5064C07430E5608
:104820000F670C431A531B530A94EB231D4D0400CE
:104830000D93E0231F930B280C4E0D4F3CF30DF30B
:10484000084F09430E480F490E5C0F6DF33F0F4EA2
:104850003FE33441354136413741384139413A41EE
:104860003B4130410B123150E6FF4B4D0D4F3D5255
:10487000814D0800B14010000A000D413D500E006E
:10488000814D0C003F501800814F0E00B1401000C8
:1048900010000F413F501400814F1200814114005D
:1048A000B1421600814E18000F4EB01262470E4FF3
:1048B0008F108F118F108F11B012484D814E000054
:1048C000814F02004E4B0F43B012484D814E040001
:1048D000814F06000F413F52B012DA4731501A00A3
:1048E0003B4130413F407012FF40DCFF0000FF4081
:1048F0000500010030410B120A12091208120712BA
:1049000006122F52074F17F3075F3F407012013C0A
:104910000F562E4F064E36F0FF0F069702280E93C5
:104920001934084F0E4F8E108E118E108E11094EB5
:104930003C4070120E4C8E108E118E108E110D4E4A
:104940000A480B490A8C0B7D0B93E23B03203A90FB
:10495000DC05DE2B3F904C18112C27830E473EF0D0
:10496000FF0F3ED000808F4E00000E4F0E5706877F
:1049700036F0FF0F8E4600002F53013C0F433641A7
:104980003741384139413A413B4130410B120A121B
:1049900009120812071206123E4070120943053C24
:1049A0002D4E3DF0FF0F094E0E5D0D4E2D530F9D08
:1049B0001A24064E0D4E8D108D118D108D11074D40
:1049C0003A4070120D4A8D108D118D108D110B4DC6
:1049D0000C460D470C8A0D7B0D93E23B3C203C902E
:1049E000DC05DE2B383C264E084638F0FF0F085E0B
:1049F00036F0FF7F8E4600000A480F488F108F1157
:104A00008F108F110B4F3C4070120F4C8F108F1175
:104A10008F108F110D4F0A8C0B7D0B9305381B9354
:104A20000D343A90DC050A2C2F480F9307383FF0DD
:104A3000FF0F36F0FF0F0F568E4F000009930B2427
:104A40002F490F9308382E4E3EF0FF0F3FF0FF0F17
:104A50000E5F894E000036413741384139413A41B5
:104A60003B4130410B120A12091208123B407012EE
:104A70000A43083C2E4B0F4E3FF0FF0F0E930138B8
:104A80000A5F0B5F084B0E4B8E108E118E108E112D
:104A9000094E3C4070120E4C8E108E118E108E11ED
:104AA0000D4E0E480F490E8C0F7D0F93E33B0320F4
:104AB0003E90DC05DF2B0F4A384139413A413B41FA
:104AC00030410B120A12091208120712074F0A4E40
:104AD0000F939A240E9398243D4010000E430F4AE2
:104AE000B012A4C90C474E430D43433C7B903A009F
:104AF0001C240D5D0D5D0D5D0D5D4F4B7F50D0FF96
:104B00007F900A00042C8B113B50D0FF0C3C4F4B84
:104B10007F50BFFF8B117F900600032C3B50C9FFD5
:104B2000023C3B50A9FF0DDB0C3C4B4E0B5B0B5A80
:104B3000494D89108D104D4D0DD98B4D00005E53A0
:104B40000D435F4C01004F930C204C4E0C5C0C5AF3
:104B50000F4D8F104F4F4D4D8D100DDF8C4D0000C0
:104B6000533C1C53FC903A00FFFF03207F903A0017
:104B700005246B4C4B93BA23013C1C53CC9300008F
:104B8000FC233C534E43784007000B433B3C6D4CA9
:104B90007D903A0021244F4D7F50D0FF7F900A0036
:104BA000042C8D113D50D0FF0C3C4F4D7F50BFFF6A
:104BB0008D117F900600032C3D50C9FF023C3D50F3
:104BC000A9FF494E79F00F00499303240D5D7953F5
:104BD000FB3F0BDD6E520D3C4D480D5D0D5A4E4BAB
:104BE0008E108B104B4B0BDE8D4B000078534E43D9
:104BF0000B43FC903A0000000420FC903A00FFFFB9
:104C000003243C53079CC32B3741384139413A4177
:104C10003B4130410B120A12091208120712061208
:104C20000512064E065D0C43074305463582059E78
:104C300057282A4F4B4A8B108A104A4A0ADB2942CE
:104C40003B43484978F00F00062412C30B107853F9
:104C5000FC230B9A05282C931C2039901000192056
:104C60000B4A38401000488978F00F00489304241C
:104C700012C30B107853FA3F3BF00F003B900A0031
:104C8000032C7B503000023C7B505700CE4B000081
:104C90001E53295239901400D3238F93000007200C
:104CA0000C930520FE403A0000001E531C438F93D6
:104CB000000003241C9301202C4337900700062496
:104CC0001C930424FE403A0000001E5317532F5338
:104CD0003792AD231C930420FE403A0000001E537F
:104CE000CE4300001E530A4E0C4E8C108C118C10BB
:104CF0008C110B4C0E460E8D0C4E8E108E118E109C
:104D00008E110D4E0A8C0B7D0F4A354136413741CD
:104D1000384139413A413B4130416E4F7EF003000A
:104D20006E9303201F4F020030417E9003000A2043
:104D30000E4F2E530D4F3D500A000F433F5E0E9D08
:104D4000FD2330410F4330410B120A124A4F8A10A3
:104D50008F104F4F0C4A0CDF0D434A4E8A100B4EFA
:104D60008B104B4B0E430F430F4A0FDB0EDC0FDD56
:104D70003A413B4130410C4F043CFC4E00001C5377
:104D80003D530D93FA2330418F4E00008F4D0200AA
:104D90008F4C040030410B120A12091208120A4FFC
:104DA000084E0943133C021232C2034382493201C6
:104DB000924A020038011B423A0132412B5A0F4BF2
:104DC00088123F9306241F9305241953199A04004F
:104DD000EA2B0B430F4B384139413A413B413041BB
:104DE0000B120A1209120B4F094E0A430E3C021213
:104DF00032C20343824A3201924B020038011F4201
:104E00003A0132412F5B89121A531A9B0400EF2B8F
:104E100039413A413B413041C24F77005F42020085
:104E20003FF04000FB27F2F0BFFF02005F42760038
:104E300030416D4F2DB202246E42013C4E433DF293
:104E400002247E5005004E4E1F4F02000F5E30417F
:104E50000B121E4F02005B4F01000E9329244B4B97
:104E60000B9326246F4E4D4F7C40060012C34D100D
:104E70007C53FC234D931E2412C34F1012C34F10BA
:104E800012C34F107F90180006203B900500153884
:104E90002E522F42013C0F436E4E12C34E1012C3CE
:104EA0004E1012C34E107E901C0008203FD2063CCC
:104EB0000F43043C3F401000013C2F423B41304136
:104EC0001D4F02000D931A240E9318246F4D12C328
:104ED0004F1012C34F1012C34F107F9018000324BD
:104EE0007F901C000D201D4D02004F4D8F108D1026
:104EF0004D4D0DDF8E4D00004F4330415F4330413B
:104F00005F4330413D4010003E40D224B012B0C754
:104F10005F42D81130415D427C184D9317245C42AA
:104F200025274F4C0F5F0E4F3E50CE182F4E8E430D
:104F300000007D53C24D7C184E4C5E53C24E252757
:104F40007E9005000420C243252730410F433041A5
:104F50003182C1430000F14012000100F1406D00B8
:104F60000200F14045000300F14050000400C1433D
:104F70000500C1430600D142681107000F413F50B0
:104F800007000E430D410D5E6C4DED4F0000CF4C00
:104F900000001E533F532E92F5232C411D41020069
:104FA0001E4104001F410600315230411D4F0200D6
:104FB0000D9315246F4D12C34F1012C34F1012C31F
:104FC0004F107F90180003247F901C000A200F4E82
:104FD0008F10CD4F0200CD4E03004F4330415F4351
:104FE00030415F4330411D4F02000D931B246C4D37
:104FF0004F4C12C34F1012C34F1012C34F107F906B
:10500000180003247F901C000F203EF0FF070F4E76
:105010008F107CF0F8FF4CDFCD4C0000CD4E01002E
:105020004F4330415F4330415F4330410B121D4FCE
:1050300002005C4F01000D931A244C4CCF4300003A
:105040002EB209242C921328EF420000FD40C0FF2D
:1050500000002D522C823EF208243C9005000728C7
:10506000FFD20000FD40E0FF00004F43013C5F43E2
:105070003B413041C243352EC243342EE242DD185B
:10508000C2433A27C2433A2EC243BF1A8243EA249C
:1050900030411F429001013C0F4E1E4290010F9E75
:1050A000FB233041B2F0EFFF8401E2D31F00B2F0E6
:1050B000FEFF8401B2F0FDFF84014F4F8F107E4050
:1050C00006000F5F7E53FD233FD00001824F840115
:1050D000B2D0100084014F4330414F9304245F420B
:1050E00019006FD3043C5F4219007FF0FDFFC24FEF
:1050F0001900F2D21900F2F0F7FF19003041F2F076
:10510000EFFF05003F403300FFF0FDFF0000FFF020
:10511000FBFF0000FFF0F7FF00003041F2F0CFFF8F
:1051200005003F401B00FFF0BFFF0000FFF07F00C5
:10513000000030410B120A1209120C4E0E93023479
:105140003C5007000C110C110C110A4F0A5C3EF088
:10515000078004343E533ED0F8FF1E533B40FF000F
:105160003942498E4E497EF00F004E9303240B5B6B
:105170007E53FB3FCABB00002B200E4D0D93023423
:105180003E5007000E110E110E110A4F0A5E3DF03F
:10519000078004343D533DD0F8FF1D533B40FF00D2
:1051A0003942498D4D497DF00F004D9303240B5B2F
:1051B0007D53FB3FCABB000007240A3C0D4F0D5C2A
:1051C000CD93000005201C530C9EF83B0F43013C7F
:1051D0003F4339413A413B4130413F40F418CF43CE
:1051E00000003F5018003F90D41AF9233041F2409C
:1051F00080FF8218C243DC18C2430C2FC243EC2E3E
:10520000C243B61830410B120A120912081231506B
:1052100000FC5D42EC114C431F3C4B4C0F4B0F5FAD
:105220008F4350124D434F4D0E4B0E5E0E5E0E5E81
:105230000E5E0E5F0E5E0E518E4300020F5F0F5F1B
:105240000F5F0F5F0F5B0F5F0F518F4300005D53C8
:105250007D901000E8235C537C901000DE2BC24D43
:10526000EC11C243EE111942DA264B431E3C4E4B61
:105270000F4E0F5F0F592C4F4D43084E4A4D0F48AC
:105280000F5F0F5F0F5F0F5F0F5A0F5F0F513F50A0
:1052900000020E4C0E5E0E430E6E8F4E00000C5C34
:1052A0005D537D901000EA235B537B901000DF2B51
:1052B0004C431A3C4D434B4C4F4D0E4B0E5E0E5E15
:1052C0000E5E0E5E0E5F0E5E0E510F5F0F5F0F5F84
:1052D0000F5F0F5B0F5F0F519E4F000200005D5389
:1052E0007D901000E9235C537C901000E32B4E432B
:1052F000253C4C4E4D434B4D0F4C0F5F0F5F0F5FE6
:105300000F5F0F5B0F5F0F512F4F1F930B200F4C41
:105310000F5F0B4F3B5050122F4B0F5F1F538B4FA4
:105320000000073C0F9305200F4C0F5F9F5F50124A
:1053300050125D537D901000DE235E537E9010006E
:10534000D82BC24DEC11C24EEE113F4050123150DD
:105350000004384139413A413B4130410D4F8D10F5
:105360004D4D4F4F8F100DDF4E4E0DEE4F4D12C372
:105370004F1012C34F1012C34F1012C34F104E4F95
:105380000EED4F4E8F100F5F0F5F0F5F0F5F0FEE31
:105390004E4F0E5E0E5E0E5E0E5E0E5E0FEE3041E6
:1053A0000B120A12091231820B4F194270301A4245
:1053B000C824B012504F814C0000814D0200814E34
:1053C0000400814F06003D4010000E430F4BB01209
:1053D000A4C9BB40FE800000C293D6111A240F4915
:1053E0008F104F4F4D498D100DDF8B4D0800BB4086
:1053F00000FF0A00BB40FE000C000F4A8F104F4F09
:105400004E4A8E100EDF8B4E0E00FBF0FDFF0800A3
:105410000D3C0F4B3E4007000D410D5EEF4D080067
:105420003E531F533E93F823EBE308005F43315292
:1054300039413A413B4130410B120B4F3D400C008A
:105440000E433F501000B012A4C9EB430A008B4337
:1054500006003B4130410B120A120912094F0A4E55
:105460000B430A3C0D490D5B6D4D0D12301280D37C
:10547000B0120ECA21521B530B9AF43B3F400A0054
:10548000B012F6C539413A413B4130410B120A1284
:1054900009120812084F094E3A40B6210B43021276
:1054A00032C20343824B3201B240280038011E420F
:1054B0003A0132415D4EA2210D110D434D104D4D6B
:1054C0008D118D104D9332246D4A4D9321244D4DF5
:1054D000099D01340D490D9302343D5007000D1113
:1054E0000D110D11021232C20343824B3201B24040
:1054F000280038011C423A0132412C520E4C3E50D9
:10550000A2210F48B01290C70F93102009930E24C8
:10551000021232C20343824B3201B24028003801EA
:105520001F423A0132413F50A221073C1B533A50DF
:1055300028003B901400B3230F43384139413A41CE
:105540003B4130410B120A1209120B4F19427030C5
:105550001A42C824B012504FBB90FE800000472072
:10556000C293D6111F24BB9000FF0A001B20BB90E2
:10557000FE000C0017201E4B08004F4E8F108E109F
:105580004E4E0FDE0E493EF0FFFD0F9E46201E4B95
:105590000E004F4E8F108E104E4E0FDE5E430F9A50
:1055A0003C203C3C0A4F8A106AE3CB9A08001C203E
:1055B000CB9F090019200F4E8F105F9B0A0014200B
:1055C000CB9E0B0011200F4D8F105F9B0C000C2009
:1055D000CB9D0D0009200F4C8F105F9B0E00042007
:1055E0001E43CB9C0F0001240E434E4E173CFB93F1
:1055F000000009205F4B01003FF00F005E433F9029
:1056000003000C380A3C3D4010003E40D2240F4BB2
:10561000B01290C75E430F9301244E434F4E394161
:105620003A413B4130410B120A123150F0FF0A4F10
:105630000B4E0F41B012044F4F930C243D420E4AC3
:105640000F41B01290C70F930520CB4300003F409D
:105650004000013C0F43315010003A413B41304182
:105660000B120A12C293E2111C240B434A4B021282
:1056700032C20343824B3201B240180038011F424C
:105680003A0132413D4010000E413E5006003F506D
:10569000DE18B01290C70F9306241B533B901400E2
:1056A000E5237A4014004B4A0B12301286D3B01215
:1056B0000ECA21527A9014002324021232C20343EC
:1056C000824B3201B240180038011F423A01324188
:1056D0003D4018000E413E5006003F50DE18B0120B
:1056E000B0C7021232C20343824B3201B2401800EB
:1056F00038011F423A013241BF400A00F2181A3CF9
:105700003E40F4180F43CE9300001720021232C21D
:105710000343824F3201B240180038011F423A0160
:1057200032413D4018000E413E5006003F50DE1809
:10573000B012B0C7D253E211063C1F533E501800BE
:105740003F901400E0233A413B4130413D4040004E
:105750003E40F011B012144C3012F011B0120ECACB
:10576000215330413E40A4210C432F9E31203F4025
:1057700013000F8C021232C20343824F3201B24037
:10578000280038011D423A0132410F4C1F530212CA
:1057900032C20343824F3201B240280038011E4218
:1057A0003A0132413E50A221021232C20343824CDE
:1057B0003201B240280038011F423A0132413F50C5
:1057C000A221B012AAC8F2F0FEFF9A244F43304142
:1057D0001C533E5028003C901400C7235F433041C7
:1057E0000B120A1209122183094F0A4D0B43103C78
:1057F0000C412D430E4B0F49B012E2462F9321204E
:105800006E415C4101001C530C5C0C5C0C5C0B5C3D
:105810006D4A7D9311204E93EB277E902B00E82755
:105820007E902C00E5277E903C00E2277E9087FF4B
:10583000DF27CA4E0000023C4D9EDA237E903B00DB
:1058400001203B430F4B215339413A413B41304109
:105850000B120A12091208120A4F0B4E084D1E4174
:105860000A0019410C00C94300002F4B3F90FE80F5
:1058700075208B93020072208B9304006F208B9312
:1058800006006C201D4B08000D9311208B930A001D
:105890000E208B930C000B20E94300003B500E00C0
:1058A000EA4B0000DA4B010001002A53B83C0F4ECE
:1058B0003FF0FFFD8F104F4F4E4E8E100FDE0D9FAD
:1058C0001720BB9000FF0A001320BB90FE000C00C5
:1058D0000F206F4C7FF003006F930A201E4C0200D4
:1058E0004F4E8F108E104E4E0FDE8B9F0E002824D1
:1058F0006F4C7FF003007F90030026205F4C09006F
:105900006FE3CB9F08002020DB9C080009001C20CF
:10591000DB9C07000A001820DB9C06000B0014200B
:10592000DB9C05000C001020DB9C04000D000C200B
:10593000DB9C03000E000820DB9C02000F0004200B
:10594000F940030000006B3CD94300003D420E4B80
:105950003E520F4AB012B0C73A52613C18933D38DC
:10596000E9420000389080000520F940070000005F
:105970000F43313C3D4070000E480F4BB012345184
:105980000F930C20F940060000003B500E00EA4B3C
:105990000000DA4B010001002F431D3C3D40400058
:1059A0000E480F4BB01234510F930B20F9400500F5
:1059B00000003D420E4B3E520F4AB012B0C73F426C
:1059C0000A3CC94300003D4010000E4B0F4AB01284
:1059D000B0C73F4010000A5F223C0F9318208B9302
:1059E000020015208B93040012208B9306000F20D9
:1059F0008B9308000C208B930A0009208B930C00DA
:105A000006208B930E000320E9420000083C3D4035
:105A100010000E4B0F4AB012B0C73A5010000F4A98
:105A2000384139413A413B4130410B120A120912C7
:105A30000812071206123150F0FF0B4F484E074D67
:105A40000A4C19411E00164120003D4010000E4333
:105A5000B012A4C948480F482FF238F003000F9342
:105A60003B2018930D2428930F24089311203D40C8
:105A700010000E4A0F4BB012B0C73A501000723CE3
:105A8000BB40FE8000003B3CBB40FE8000003F3C32
:105A9000BB40FE8000006F497FF003007F90030051
:105AA0000B200F430E4B0E5FDE49090008001F5309
:105AB00039533F92F723443C0F463FF0FFFD8F10D0
:105AC0004F4F4E468E100FDE8B4F0800FB430B00EE
:105AD000FB40FEFF0C003D3C089344240F41B012F4
:105AE000044F4F930724479305203D420E410F4B2F
:105AF000B012B0C728930B243890030011243D4204
:105B00000E4A0F4B3F52B012B0C73A522B3C3B509B
:105B10000E00EB4A0000DB4A010001002A53223C40
:105B20006F497FF003007F9003000D200F430E4B61
:105B30000E5FDE49090008001F5339533F92F723D7
:105B4000EBE308000F3C3D420E430F4B3F52B012B7
:105B5000A4C91E4902004F4E8F108E104E4E0EDF0C
:105B60008B4E0E000F4A31501000364137413841FC
:105B700039413A413B4130410B120A1209120812D5
:105B800007120612051204123150E8FF814F0E0071
:105B9000814E0400074D064C814D0200C14C0100AE
:105BA0000F41B012504E4B4FC14F00007B90100080
:105BB00002203040EC620F41B012324E814F08009B
:105BC0006BB227241E4104000F41B012C04E1A418F
:105BD00002000A932324B190FCFF04001F246D4AA5
:105BE0004B4D12C34B1012C34B1012C34B107B9082
:105BF000180003247B901C0011200B4D3BF0070084
:105C00008B105D4A01000BDD1E4104008E4B040029
:105C1000053C1F410400BF40D10004001E410400A8
:105C20001F4E0400B012F6481E4104008E4F0600BD
:105C30000F9302203040F062914108000A001A419F
:105C400008008A108A118A108A11814A0C000847BC
:105C50000B478B108B118B108B11094B18810A008D
:105C600019710C000658814610001D4E04000E43A9
:105C7000B012A4C91F4104008F430C001E4108004C
:105C80006A4E914F060006007A9041000F2018419D
:105C9000100038530D481E531F410600B012B0C704
:105CA0001F4104001D4F0600304014621E410400D5
:105CB000914E040014004A4A0C4A3CF0E0003C902B
:105CC00060000224304018621F410800CF93010099
:105CD00006380C4F2C53814312000843183C1E41D8
:105CE00008005C4E02004B4C12C34B1012C34B1009
:105CF00012C34B1012C34B10084B38F00F000F4C5F
:105D00003FF00F00814F12000C4E3C5003003AF060
:105D100018003A9216243A90100003240A93232480
:105D2000383C694C0A49095909594A4A77400600E2
:105D300012C34A107753FC2349DA1C534F434E4396
:105D40002C3C6E4C494E7740060012C349107753E5
:105D5000FC234F4E7FF00F005E4C0100574C0200B9
:105D60003C5003001A3C6A4C094A0A5A0A5A4949EB
:105D70007740060012C349107753FC2349DA5F4C81
:105D800001007FF00F005E4C0200574C03002C52C4
:105D9000043C4F434E43474349434A470B43064A5B
:105DA000074B06D337D000600443054345496A4298
:105DB000045405657A53FC2306D407D504430543F0
:105DC000054F35F00F0006D407D54A4E0B434BEA7A
:105DD0000BEA8B104A4A8A100E460F470EDA0FDB89
:105DE000814C1600B012484D094E0A4F1E41060064
:105DF000CE4900008910CE490100CE4F02008A1022
:105E0000CE4A03001F4108006A4F2AF21C411600C7
:105E10000220FE4C06001E4108006A4E3AF00300C4
:105E20002A930A243A9003000D241A9310201F414C
:105E30000600DF4307000F3C1E410600FE40400005
:105E40000700093C1F410600FF430700043C1E41B8
:105E50000600FE4C07001F4108005B4F010012C303
:105E60004B1012C34B1012C34B1012C34B101E41E8
:105E70000E001E1214000E120D484E4B1F410A0058
:105E80003F52B0122A5A2152074F0F93022030403E
:105E900018621F4108005A4F01004B4A054B35F26A
:105EA000194106003950180005933F243D40100069
:105EB0000E430F49B012A4C92BB20224304018621D
:105EC0003BF003002B9312243B90030025241B93EB
:105ED00003203A4005000C3C3D4010000E470F499E
:105EE000B012B0C7044734501000303C3A400300B1
:105EF0001E410600FE4318000B47FE4B1900094ED9
:105F0000098A0D4A0E4B0F493F502800B012B0C706
:105F1000044A145304571A3C1F410600BF40FF02B5
:105F200018000447FF442700113C1E410E001E12BA
:105F300014000B4E3B500A000B120C471D4116007B
:105F40004E4A0F49B0122A5A2152044F049302209C
:105F50003040186218410600385028001F410800E0
:105F60006C4F2CF202203040DE611A4106003A509C
:105F70000600154114003550D8FF1E4104008E481C
:105F80000E006D440F4D3FF0F0003F90E0006220A6
:105F90000F4D3FF00E000F5F104F9ED3CA4300001D
:105FA000133CFA402B0000000F3CFA402C0000008C
:105FB0000B3CFA403C000000073CFA4087FF000021
:105FC000033CFA40290000006F441FF30E440420F4
:105FD0001E53D844010000005B4E01004D4B0C4D98
:105FE0003CF007003F420F8C494F79F007004749CA
:105FF000075D0C472C83059C022C30401862064E2E
:1060000026532D830E460F482F53B012B0C76D4A4A
:106010004D9303247D903C0010204D4B5993042058
:106020000D58CD430000093C699307280D58DD4306
:1060300000004F496F83CD4F01000F470F110F1123
:106040000F117F53C84F01004B4B2B834F490B5F00
:106050000B569B3C0F4D3FF0F8003F90F000DC20CA
:10606000FA401100000088430400884306000E4DEA
:106070003EF003005F4401002E9338243E9003005D
:1060800050245C4402008F100FDC1E931A240E4F24
:106090008E104E4E4F4F8F100FDE884F00005E4423
:1060A00003008E105F4404000EDF0F4E8F104F4F21
:1060B0004E4E8E100EDF884E02000B443B50050002
:1060C000543C0E4F8E104E4E4F4F8F100FDE884FA8
:1060D00000005F4403003FD000F00E4F8E104E4E84
:1060E0004F4F8F100FDE884F0200183C3FD000F05A
:1060F0000E4F8E104E4E4F4F8F100FDE884F000008
:106100005E4402008E105F4403000EDF0F4E8F10BE
:106110004F4F4E4E8E100EDF884E02000B442B5216
:10612000243C4F4F12C34F1012C34F1012C34F10D5
:1061300012C34F104F4F3FD0B0F00E4F8E104E4E47
:106140004F4F8F100FDE884F00005E4401003EF07D
:106150000F003ED0B0F00F4E8F104F4F4E4E8E10AE
:106160000EDF884E02000B442B532DF20E206F4B96
:106170008F105E4B01000FDE0E4F8E104E4E4F4FB4
:106180008F100FDE884F06002B530B934524674476
:106190000F473FF0F0003F90E00014205F480100FF
:1061A000094F1953095909590959095817F3AF24C7
:1061B0003FE30F5F0F5F0F5F055F0A480849044B1D
:1061C00030407A5F37F0F8003790F000A1200F4898
:1061D0002F521E4104008E4F0C003852993C0A4445
:1061E000094489108911891089110B4916410A0047
:1061F00017410C00068A077B1D4110000D560E4406
:106200000F48B012B0C71A810A001B710C001D4163
:1062100010000D8A0D5809201E4104001F4E060073
:10622000B0128C493F40FDFF673CE1B200001720EF
:10623000084D0F4D8F108F118F108F11094F1F4177
:1062400004001A4F06000F4A8F108F118F108F1104
:106250000B4F088A097B1E4104008E4804001F4131
:106260000400194F06000A4D8D108D118D108D11EF
:106270000B4D0C490F498F108F118F108F110D4F3F
:106280000A8C0B7D1E4104008E4A08001D4E04003E
:106290003D50D8FF4F4D8F108D104D4D0FDDC94F24
:1062A00004008F10C94F0500194E0C0009932324D8
:1062B0001A4E0E000F4A8F108F118F108F110B4F37
:1062C0001C4E06000F4C8F108F118F108F110D4F29
:1062D0000A8C0B7D1F4E04000F8A0A4F4F4F8F1000
:1062E0008A104A4A0ADF894A0000053C3F43043CC1
:1062F0003F40FEFF013C0F4331501800344135410F
:1063000036413741384139413A413B4130410849F2
:10631000044B653F4F930324D24370003041F2F0A9
:10632000FEFF700030415F42ED2E4E4F3E508C1804
:106330006D4EC24DED2E7D930220F2434F30FE4351
:10634000000030415F930C2403286F931820103C09
:106350001F4262018F105FF312241F42720130410D
:106360001F4264018F105FF30A241F427401304101
:106370001F4266018F105FF302241F4276013041F5
:106380005F43B0121463F2F0BFFF04003F401B00F4
:10639000FFF0FDFF0000FFF0FBFF0000FFF0F7FF44
:1063A00000004F43B012146330410B121B42703097
:1063B000BF90FE8000003420BF9000FF0A00202024
:1063C000BF90FE000C001C201C4F08004D4C8D108F
:1063D0008C104C4C0DDC0C4B3CF0FFFD0D9C332025
:1063E0006D4E7DF0FCFF6DD3CE4D00001D4F0E00B5
:1063F0004F4D8F108D104D4D0DDF8E4D0200213C05
:10640000FED0030000000D430C4E0C5DDC4F0F006E
:1064100002001D533F533D92F723EEE30900113C68
:10642000FF93000010205F4F01003FF00F002F93FB
:106430000A206F4E7FF0FCFF6FD3CE4F0000BE43AB
:1064400002004F43013C5F433B4130415D429E1D92
:106450007D900C00112C5E428C2F4C4D0E5C3E90BA
:106460000C0002283E50F4FF0E5E8E4F54305D53F8
:10647000C24D9E1D4F4330415F4330415D429F1DE1
:106480007D900C00112C5E42DC1A4C4D0E5C3E904F
:106490000C0002283E50F4FF0E5E8E4F3C275D53E9
:1064A000C24D9F1D4F4330415F4330415E4F060058
:1064B0007E53CF4E060014205D42BC187D90030031
:1064C0000F2C5E4283184C4D0E5C3E900300022858
:1064D0003E50FDFF0E5E8E4F062F5D53C24DBC1821
:1064E00030415D42B2185E426E304C4D0E5C3E90C3
:1064F000030002283E50FDFF0E5E8E4F66185D536E
:10650000C24DB2184F4330415D4296114E4D0E5E62
:106510008E4F6A274F4D5F53C24F96117F900500F3
:106520000220C2439611D25394114F4330415D4231
:106530007C187D900500112C5E4225274C4D0E5C89
:106540003E90050002283E50FBFF0E5E8E4FCE1897
:106550005D53C24D7C184F4330415F4330415F4231
:106560009E115F53C24F9E117F900C000220C243C8
:106570009E11F2539A1130415E4F18007E9308200D
:106580005E4F19003EF00F003E9003000B380E3CAA
:106590007E90FEFF0B205E4F19003EF0F0003E9013
:1065A000810004343F52B012A05330413F52B01228
:1065B000044F30410B120A1209120812084FC293FD
:1065C000E21122243A40F4180B43494B021232C222
:1065D0000343824B3201B240180038011C423A0199
:1065E00032413D4010000E480F4C3F50DE18B012B3
:1065F00090C70F930320CA93000008201B533A5002
:1066000018003B901400E123794014004F493841B1
:1066100039413A413B4130410B120A1209122183A0
:106620000A4F0B4E3F5006005E4E0A007EF00300FC
:106630006E930B20914B0C000000EF410000DF41F6
:1066400001000100094A3952093C3D420E4B3E50BF
:106650000C00B012B0C7094A39500E006F4B7FF0E2
:1066600003006F930B20914B02000000E9410000F2
:10667000D941010001000F492F53083C3D420E4B08
:106680002E530F49B012B0C70F493F526D4B3DF02A
:1066900003008D107E4006000D5D7E53FD235E4B92
:1066A0000A003EF003008E100E5E0E5E0EDDFA4014
:1066B000410001003ED041008E10CA4E0200DA4B6C
:1066C000140004001E4B14008E10CA4E0500215306
:1066D00039413A413B4130410B120B4FEF930A00D5
:1066E0000F241F1204001F1208001F1206002F1291
:1066F0001F1202003012BCD3B0120ECA31500C006F
:106700005F4B0A005F930D2409287F900300032448
:106710006F922220063CEB420A001E3CDB430A003B
:106720001B3C2B121B1202003012ECD3B0120ECA0B
:10673000315006001F4B06000F930A240F1230122F
:1067400010D4B0120ECA21521F4B0600B0128C4951
:10675000EB430A008B4306003B4130413150F0FFD0
:106760000F41B012044F3D4010003E40902F0F41AA
:10677000B01290C70F930920C293DC1103249242F8
:10678000661154111F4254111A3C3F40902FB01211
:10679000B4657F90140011244F4F021232C203439C
:1067A000824F3201B240180038011F423A01324193
:1067B0003F50DE181F4F1000023C3F403412315052
:1067C000100030410B120A12091221820A4F494E61
:1067D0000C412C532D430E43B012E2462F93182048
:1067E0002B430E3C0C412D430E4B0F4AB012E24698
:1067F0002F930E2069910D245D4101002D530B5DF7
:106800005D4103001D530D5D0D5D0D5D0B9DEA3B6C
:106810003B430F4B215239413A413B4130411D42EC
:10682000E8114E43063C4F4E0F5F8F4D30125E53C2
:106830000D4C0C4D1C537E901000F52B824DE81131
:10684000C24EEE113F40301230410E4232C203437D
:1068500003433EF25F4301204F4330414F930124F5
:1068600032D230410B124B4FB0124A684E4BFE935E
:106870008C1806201E43C29B4F3003240E43013C5C
:106880001E430E930E20F293ED2E0320C24BED2EED
:10689000043C5E424F30CE4B8C18C24B4F304B43C2
:1068A000023C7B400500B0125C684F4B3B413041DD
:1068B000C2937C112C204F932A20D2437C11D242C8
:1068C00012117A11D2B38E110F430F6FC24F841879
:1068D00092420C117811D2428C1176115E428E11C7
:1068E0005EF35F4301244F435E428E117EF0FEFF54
:1068F0004EDF1FF30F5F924F0E110C117EF0E7FF7A
:10690000C24E8E117F401F00B01264683041D2B376
:106910008E110F430F6F5E428E114F9303247EF052
:10692000FBFF023C7EF0FDFFC24E8E113041F29023
:106930000A0024270320E292DD180324D243901199
:1069400030417F401C00B0126468C2439011304156
:10695000D2934A1112205F42D0115F9304207F42EC
:10696000B0126468083C6F930A20D24274274A111F
:10697000F2400300D0114F4330415F4330415F4349
:1069800030410B120A1209120812071206120512E0
:106990000412044134501000315088FF0B4F844ED4
:1069A000B2FF094D94427030B0FF0F443F508CFF4E
:1069B000B012A05330121DD4B0120ECA21530F4B87
:1069C000B0124C57301241D4B0120ECA21530F44AA
:1069D0003F508CFFB0124C573F400A00B012F6C532
:1069E0000E443E509CFF0F443F508CFFB012AA63F0
:1069F0004F9303243F4050D40A3C0E443E50A6FF20
:106A00000F4BB012AA634F9307243F4077D4B012C4
:106A100062D25B4330405E753012A1D4B0120ECA10
:106A200021533E420F443F509EFFB0125654301245
:106A3000ADD4B0120ECA21533E420F443F50A8FFBE
:106A4000B01256543F400A00B012F6C5C293251149
:106A50000224304056751A44B2FF5C4A04007CF0B0
:106A60000F007CD06000CA4C04005C42A8114B4C63
:106A7000844BD2FF5C53C24CA8115B42BC184B93B1
:106A8000022030405A755A4283184C4A0C5C3C50E4
:106A9000062FA44CB6FF8C4300007B53C24BBC189E
:106AA0004C4A5C53C24C83187C9003000220C243C2
:106AB00083188493B6FF022030405A751A44B6FFFB
:106AC000DA430600CA430500CA430300CA43020072
:106AD000CA4304008A4900008443B8FF1B44B2FF44
:106AE0003B500C00844BECFF1A44B2FF3A501C00A0
:106AF000844ABEFF5C429E1D4C9317245D428C2F3E
:106B00000D5D3D505430A44DBCFF8D4300007C53BF
:106B1000C24C9E1D5D428C2F5D53C24D8C2F7D90CB
:106B20000C000520C2438C2F023C8443BCFF5C4216
:106B30009F1D4C9317245B42DC1A4D4B0D5D3D505D
:106B40003C27A44DB4FF8D4300007C53C24C9F1DD5
:106B50004D4B5D53C24DDC1A7D900C000520C243A5
:106B6000DC1A023C8443B4FF8493BCFF0524849365
:106B7000B4FF152030407C758493B4FF04241F4477
:106B8000B4FFB0127C641B44B6FFDB4305003F40FA
:106B9000B7D4B01262D27B400700304044753D400C
:106BA0008C000E431F44B4FFB012A4C90E443E50E3
:106BB0009CFF1F44B4FFB0121866844FEEFF84930D
:106BC000B8FF02243040EA721A44B2FF5D4A040062
:106BD0003DF0F0003D906000022430408875FF4099
:106BE00060000000CF4301000B4A5A4A04005B4B8F
:106BF00005008B101E44B2FF5C4E06005D4E070080
:106C00008D100E4B0EDA0F4D0FDCB012484D084EB2
:106C1000094F38F339F00F001B44B2FF5A4B040000
:106C20005B4B05008B101E44B2FF5C4E06005D4EB0
:106C300007008D100E4B0EDA0F4D0FDCB012484DD1
:106C4000844FC4FF8443C6FF6D421C44EEFF1E44C4
:106C5000C4FF1F44C6FF12C30F100E107D53FB2349
:106C6000844CEEFF844EC4FF844FC6FF4D4E089304
:106C70002420099322204E9306200B4C2B53FCD04A
:106C8000180000005D3C1B44EEFFFBD0100000002C
:106C90004C4E7B4006001F44EEFF0C5C7B53FD23F3
:106CA000844FEEFF12C34D1012C34D104DDCCF4D7B
:106CB00002000B4F3B500300433C4C4D0B4C3BF050
:106CC00003000B9C1E201A44EEFFFAD200000C4B6E
:106CD0007D4006000F4A0C5C7D53FD23844FEEFF80
:106CE0000D494CD9CF4C02000C488C108D104CED46
:106CF0000CEDCF4C0300CF4804000B4F3B50050078
:106D00001F3C7B4006001F44EEFF0C5C7B53FD23C1
:106D1000844FEEFF12C34D1012C34D104DDCCF4D0A
:106D200002000D49CF4903000C488C108D104CED2A
:106D30000CEDCF4C0400CF4805000B4F3B50060034
:106D40001A44B2FF5D4A0A004D9312247D902B0035
:106D50000F247D902C000C247D903C0009247D9014
:106D600087FF06247D90290003247D9011000520D3
:106D70001A44EEFFEAD20000033CCB4D00001B5347
:106D80001A44B2FF5D4A0B005D9305201A44EEFFE2
:106D9000DAD30000133C7D90400005201A44EEFF3A
:106DA000EAD300000B3C7D9306201A44EEFFFAD094
:106DB00003000000033CCB4D00001B530E443E502B
:106DC00078FF1F44ECFFB0122656C44378FF3E40C4
:106DD00078FF0E540E121412B0FF0C443C509CFF6E
:106DE0004D4F1E44ECFF0F4BB012505821520B4F29
:106DF0005D4478FF0D5D0D5D0D5D0D5D1A44EEFF88
:106E0000CADD01001A44B2FFFA931C0020240E448C
:106E10003E5078FF1F44BEFFB0122656C44378FF91
:106E20003E4078FF0E540E121412B0FF0C443C503A
:106E3000A6FF4D4F1E44BEFF0F4BB01250582152BB
:106E4000054F1A44EEFFDAD478FF0100673CC443D3
:106E500078FF1A44B2FFBA90FF021C0013203D4095
:106E600078003E4010001F44BEFFB01234510F9313
:106E70000920F440030078FFDB4A2B000000054B9B
:106E80001553453C3D4068003E4010001F44BEFF86
:106E9000B01234510F931320E44378FF1A44B2FF29
:106EA000DB4A1D0000003D4003000E4A3E50290011
:106EB0000F4B1F53B012B0C7054B2552283C3D4025
:106EC00058003E4010001F44BEFFB01234510F93D3
:106ED0001420D44378FF1A44B2FFDB4A1D0000009F
:106EE0003D4005000E4A3E5027000F4B1F53B01285
:106EF000B0C7054B355006000A3C3D4010001E440B
:106F0000BEFF0F4BB012B0C7054B355010005D44AB
:106F100078FF7DD21B44EEFFCBDD010005930220FC
:106F2000304088759444B4FFC0FF1D44B4FF8D10F9
:106F30008D118D108D11844DC2FF8445D4FF0D45F8
:106F40008D108D118D108D11844DD6FF1A44C0FF08
:106F50001B44C2FF1A84D4FF1B74D6FF064A365066
:106F60007C001A44B2FF584A0A008443BAFF8446A0
:106F7000C8FF0643CB3C0C443C507EFF2D430E46DD
:106F80001B44B2FF1F4B0200B012E2462F930224B3
:106F900030408C755F447FFF849FC8FF022C3040D7
:106FA0008C75F540E0FF000078902C001824789054
:106FB0002D00082C48931E2478902B00022430408A
:106FC0008C75093C78903C000E24789087FF022451
:106FD00030408C750C3CF540E2FF00000B3CF54066
:106FE000E4FF0000073CF540E6FF0000033CF540ED
:106FF000E8FF00001A44B2FF1B4A0200074627536D
:107000000C443C507CFF2D430E460F4BB012E24621
:107010002F930224304076754893032478903C00E7
:10702000032009470A47083C5D447DFF5D534D5DE1
:107030004D5D4D5D2A3C094A5C447DFF1C530C5C50
:107040000C5C0C5C0A9C19340C443C507AFF2D43B8
:107050000E4A0F4BB012E2462F9302243040767551
:107060005C447AFF4C9302201A53E63F5D447BFF59
:107070002D530A5D5C93DF23DF3F0F4A0F860F9C81
:10708000022430408C754D494D864D93022030408E
:107090008C7558447EFF4893122478902B000F245F
:1070A00078902C000C2478903C000924789087FF7D
:1070B0000624789029000324789011000420D5D369
:1070C00000000C45043C0C451C53C5480100CC4D48
:1070D00001004B4D2B832C530D4B0E471A44B2FF2E
:1070E0001F4A0200B012E2460F9B022430408C750A
:1070F0005D447FFF1D530D5D0D5D0D5D1F436B45B1
:107100000FCB0F5D055F065D848DC8FF4893332765
:1071100078902B00302778902C002D2778903C0019
:107120002A27789087FF27277890290024278446EC
:10713000BAFF1644C8FF789011003220369007003D
:10714000022C30408C750C443C5084FF3D421E4460
:10715000BAFF1A44B2FF1F4A0200B012E2463F9241
:10716000022430408C75F540F0FF00002D420E44A3
:107170003E5084FF0F451F53B012B0C70D453D5020
:107180000500DD448AFF0000DD448BFF0100B4529E
:10719000BAFF8493BAFF023430408C753550070033
:1071A0001B44B2FF194B08000A498A10464A494954
:1071B000891006D91684BAFF8445CAFF094589108B
:1071C0008911891089118449CCFF1844C0FF1944E2
:1071D000C2FF1884CAFF1974CCFF38507C000963C1
:1071E000099305380743079958380896562C944454
:1071F000EEFFD8FF1D44EEFF8D108D118D108D1107
:10720000844DDAFF1D44CAFF1E44CCFF1D84D8FF05
:107210001E74DAFF1E44EEFF0F4E2F52B012AAC8A2
:107220009444EEFF82FFE44281FFC44380FF2E427C
:107230000F443F5080FFB0122C501A44B2FF1D4A39
:1072400008000A4D8A104A4A4D4D8D100ADD0E4A3B
:107250003E5028000F443F5080FFB012E64F1E44BE
:10726000D2FF0F443F5080FFB012AC4F25528445EF
:10727000DCFF0D458D108D118D108D11844DDEFFBD
:107280001A44C0FF1B44C2FF1A84DCFF1B74DEFFDC
:10729000064A36507C0036F0F8FF0C450D461E4479
:1072A000BAFF1B44B2FF1F4B0200B012E2460F961A
:1072B0000224304092751A44BAFF3A5028000A5608
:1072C000844AB8FF8445E0FF0B458B108B118B106F
:1072D0008B11844BE2FF1A44E0FF1B44E2FF1A8447
:1072E000C0FF1B74C2FF0A56B63C0E443E509CFFC2
:1072F0001F44B4FFB0121866054F844F82FFF4405C
:10730000050081FFC44380FF3E420F443F5080FF91
:10731000B0122C501B44B2FF1D4B08000B4D8B10BC
:107320004B4B4D4D8D100BDD0E4B3E5028000F4446
:107330003F5080FFB012E64F4F93022430409875C3
:107340001E44D2FF0F443F5080FFB012AC4F4F930A
:10735000022430409E751B4482FF0B930220304074
:10736000A4756D4B12C34D1012C34D1012C34D10B6
:107370007D901C0002243040A4751D44B8FF12C348
:107380000D1012C30D1012C30D10CB4D04000C458F
:107390003C5005001A44B2FF1B4A08000D4B8D10EB
:1073A000484D4B4B8B1008DB385028001884B8FF31
:1073B0009444B4FFCEFF1B44B4FF8B108B118B1091
:1073C0008B11844BD0FF844CE4FF0B4C8B108B1142
:1073D0008B108B11844BE6FF1644CEFF1744D0FF71
:1073E0001684E4FF1774E6FF0A460B473A507C0008
:1073F0000B630B9305380943099B07380A98052C42
:10740000084638507C0038F0F8FF0D481E44B8FF9D
:107410003E50D8FF1B44B2FF1F4B0200B012E246A1
:107420000F98C3208458B8FF08931E248445E8FFB2
:107430000C458C108C118C108C11844CEAFF1C4470
:10744000E8FF1D44EAFF1C84CEFF1D74D0FF0A4CE8
:107450003A5005000A580A9308340A123012D4D45C
:10746000B0120ECA2152013C0A431412B8FF0A128C
:107470003012E9D4B0120ECA315006004E4A5E53A3
:107480001B44B4FFCB4E00001A9308340F4BB012CC
:107490007C641F44BCFFB0124C64323C5B429A11C6
:1074A0007B900C00252C5C429C114D4C0D5D9D4445
:1074B000BCFF1A2E4D4C5D53C24D9C117D900C00AB
:1074C0000220C2439C115B53C24B9A111A44B6FF6F
:1074D000DA5302001B44BCFF9B44B4FF02008B4AFA
:1074E00000005D44A6FF7DF003006D9315200A3C6B
:1074F0001A44B6FFDA4305003F4009D5B01262D204
:107500004B43203CB493A8FF07201B44B4FFCB435C
:107510008900CB438800073C1A44B4FFFA400500B9
:107520008900CA4388001B44BCFF1D4B0200FD407C
:1075300067008B00CD438A001A44B6FFDA53060079
:107540003040F46A1F44B6FFB012AC647F401100B3
:10755000B0126468043C6B42023C7B4007004F4B16
:107560003150780034413541364137413841394155
:107570003A413B4130417D43304092701F44BCFF53
:10758000B0124C643040866B3A43673F3A40FEFF8E
:10759000643F3A40FDFF613F3A40FBFF5E3F3A40A7
:1075A000FAFF5B3F3A40F9FF583F3A40FCFF553F36
:1075B0000B120A12091208120712474F0A4E084D01
:1075C0005942B21849931E245F426E304C4F0C5CF6
:1075D0003C5066182B4C8C4300007953C249B218BA
:1075E0004C4F5C53C24C6E307C9003000220C2436F
:1075F0006E300B9308243D420E4A3E520F4BB012A0
:10760000B0C7013C0B43579312200D4B0E480F4A55
:10761000B01282694A4F4F930B240B930924F290C6
:107620000300B218052C0F4BB012E264013C4A4330
:107630004F4A3741384139413A413B4130417F401F
:107640000B00B0126468824338273D4010003E4072
:107650002A273F40082EB012764D3F40F418CF4302
:1076600000003F5018003F90D41AF923D243DA119A
:10767000D243C81130410B120A1209120812071224
:1076800006120512054F0A4E064D3EB00700D520E2
:107690003E908100D234B0128C540B4F0F930424CF
:1076A0005D4F14000D9AAB24D2B39A249F20394029
:1076B000B6210B43021232C20343824B3201B24065
:1076C000280038011D423A0132415C4DA2210C11C3
:1076D0000C434C104C4C8C118C104C9337246D493E
:1076E0000D9A07381B53395028003B901400E223B1
:1076F0007D3C3C4013000C8B021232C20343824C8F
:107700003201B240280038011D423A0132410212D2
:1077100032C20343824B3201B240280038011C427E
:107720003A0132413C50A2210F4B1F53021232C288
:107730000343824F3201B240280038011F423A0110
:1077400032410E4C3F50A221B012AAC8021232C2DE
:107750000343824B3201B240280038011C423A01F7
:107760003241DCD3A22119422611013C094D0D49B9
:107770001D533740A4210843021232C203438248FA
:107780003201B240280038011C423A0132415C4CBF
:10779000A2210C110C434C104C4C8C118C104C93AE
:1077A00002242997E32718533750280038901400F3
:1077B000E323824D2611021232C20343824B32016F
:1077C000B240280038011D423A0132418D49A421BE
:1077D000021232C20343824B3201B2402800380108
:1077E0001B423A0132413B50A221013C0B430A9318
:1077F00004207F401000B01264680B931E24CB4A13
:107800001400DB4326000F4B2F520A9302343A50E8
:1078100007000D4A0D110D110D110E45B012B0C724
:10782000069308243D4010000E460F4B3F501600B3
:10783000B012B0C71F4B0200013C3F4335413641F7
:107840003741384139413A413B4130410B12B01286
:107850004A684B4FC293323008207F401A00B01262
:1078600064684F930220D24332304F4BB0125C68B1
:107870003B4130410B120A124B4F4A4E5F42DD181A
:107880005F930E2406286F933C247F900300E7202B
:10789000463C4B9302203040867AB0127450F13C43
:1078A0004B93F1201F42EA24B0125C53824FEA242A
:1078B000E243DD18C24A3A2E7A904400D0205D425D
:1078C0008E115DF30324E2B28E11023CE2B38E11FD
:1078D0000E430E6E4E93C3205F428E114D930224D1
:1078E0006FD2013C6FD3C24F8E115F428E117FF079
:1078F000E7FF7FD2C24F8E11C2438C11F2431211A7
:10790000C23C4B93AC20C24EBF1A1F42EA24B012B5
:107910005C53824FEA24F2400300DD18B43C5F421E
:107920003A277F939C244B9341246F9398285F427E
:10793000342E4F9302247F53013C6F434E4F5E4ED3
:10794000362E8E104F9302247F53013C6F434F4FCE
:107950005F4F362E0FDE1F92EA2481204F43B01274
:10796000B0685C42BF1A5E42CA245B42CB244F4ED1
:107970005F537F900600022C4D4F013C4D434D9BC1
:107980000C244E4ECE4CCC24C24FCA247F9006000D
:107990000228C243CA24B0124C78B0127450F2F0DC
:1079A000FDFF7411C29390116E24643C6F934628BE
:1079B0005F42352E5E4F362E5F428E1112C34F103E
:1079C00012C34F1012C34F103FF003001F93032444
:1079D0002F932020133C5F428E117FF0E7FF7FD072
:1079E0001000C24F8E114E9302244F43023C7F4041
:1079F0000500C24F8C11C24E12110C3C5F428C111B
:107A00007F908CFF072C4F4F1F520C11CF4E000060
:107A1000D2538C115D42352E4F4D5E4F362E4F4D59
:107A20005F53C24F352E7F9003000228C243352E8C
:107A30001F42EA24B0125C53824FEA245E42342E85
:107A40004F4ECF4A362E4F4E5F53C24F342E7F904B
:107A500003000228C243342ED2533A27143CB012FA
:107A60007450F2F0FDFF74115F43B012B068C2931E
:107A700090110524E242DD18B0122E69043C4B93AC
:107A80000224D243DD183A413B4130410B120A1225
:107A90000B4D4A4C7C907100442CCD4E06008E104C
:107AA000CD4E0500CD4F0B00CB4C090082938811C1
:107AB0003A20B0124A68F24005008411C243821194
:107AC000824B8A11A2438811C2437E11C2438011A6
:107AD0007A500C00C24A8611B0125C68B0124A6833
:107AE000F2900A0024270320B0125C68163CB01202
:107AF0005C68B0124A68C2934E1B0620D2434E1BEC
:107B0000C2434F1B5B43013C4B43B0125C684B9339
:107B10000424B0124C784F43083C824388115F43E1
:107B2000043C6F43023C7F4005003A413B413041F9
:107B3000C24313111D42E2240D9304245F42122F0D
:107B40001FF30224D2431311C293131112205F4D6D
:107B500005008F105E4D06005C4D09000EDF5F4D85
:107B60000B00B0128C7A4F9304247F401900B0129E
:107B7000646830415F42AB2F8F105E42AC2FC2432E
:107B800013117C401C003D40A62F0EDF5F42B12F39
:107B9000B0128C7A4F930424D24313118243E2240F
:107BA00030410B121B426C113B901C0002283B40E1
:107BB0001C003D401C000E433F40B22FB012A4C930
:107BC0001F4270111D426C110E430B3C5C4FA21DF5
:107BD0000D9304241F533FF0FF033D53CE4CB22FAF
:107BE0001E530E9BF323824F7011824D6C11F24392
:107BF000AC2FF243AB2FF2406400B12F8293E2240A
:107C00000D20B240A62FE224F2401C00AF2FC293F9
:107C100013110824B012747B4F9304247F40210079
:107C2000B01264683B4130414F930F204E930920BE
:107C300082936C110324B012A27B3041C2436A11BB
:107C400030417F402100B01264683041B0124A6870
:107C50004E4FC29308110820F290030072110420C5
:107C6000B0125C685F4330414F4EB0125C684F43C6
:107C70003041B0124C7C4F9311248293A22F1020DC
:107C8000B240B118A22F92435627C2434E189243D6
:107C9000C41AD242B1187F004F4330415F43304194
:107CA0007F40050030414E4F7E5083FF6E930A2C7B
:107CB000D2D374117FE02000C24F2827F2407D000C
:107CC000B118023CC24FB118B012727C3041B012F0
:107CD0004A68F2F0FEFF7411F2407E00B118B01253
:107CE0005C68B012727C30410B120A120912D2B3D6
:107CF00074110924F2F0FEFF7411D2422827B11842
:107D0000B012727C873C5F4224277F537F927D2C88
:107D10004F4F0F5F104F28D55F423E1BB012A67C1D
:107D20004B4FF240030024275E423E1B0A3C5F4259
:107D3000022FB012A67C4B4FF240030024275E4274
:107D4000022F1F426C30B0125C53824F6C305B3C90
:107D50005F424C250F5F3F504C1B5F4F0100B0123C
:107D6000A67C4B4F59424C254A490D4A0D5D3D506A
:107D70004C1B5E4D01001F426C30B0125C53824FB1
:107D80006C305D42E21A5D53C24DE21A59931B20DA
:107D90005E4284114F4E1F528A116F4F5E53C24E86
:107DA0008411C29E8611032CE2434E1B4F430E4AA0
:107DB0000E5E3E504C1BEE93000005247D93032481
:107DC000CE4F0100203CE24224271D3C5F426C3034
:107DD000B012A67C4B4FF24005002427143C1F42F2
:107DE0006C308F10B012A67C4B4FF2400600242757
:107DF0000A3CB012CE7C4B4FF24007002427033CD4
:107E0000F2422427053C4B930524F2400900242725
:107E1000B0124C7839413A413B4130410B12B0121B
:107E20004A681D42E01A1E42042F0D9303240D5E82
:107E30006D4D013C4D43C24D77006E531D420E2FD8
:107E40004C4E0D9C1C2C4E4D1A3C5D4202003DF0E8
:107E50004000FB275B4276001D42D8260D93032489
:107E60000C5DCC4B00001D42E01A0D9304241D5202
:107E7000042F6D4D013C4D43C24D7700013C4E4EE9
:107E80001C42042F0D4C1D53824D042F0D9EDD2BE3
:107E9000B0125C683B4130410B12B0124A685B4340
:107EA000C2935A2701244B43B0125C684F4B3B41AD
:107EB0003041C293D2113820F2934D113520B012C7
:107EC000987E4F933124D243062EC2938A180224FF
:107ED000C243062EC293062E2924F2900300D0112D
:107EE0002820C2934A1127205E424C117E9315240C
:107EF0004F4E5D4FE81AC24D4C117D930220F24364
:107F00004B11FF43E81AC24E7427F2434A11D24381
:107F1000D0117F42B0126468043CD2434A11C2437C
:107F2000D011B0128063053C5F4330417F400500B3
:107F300030414F4330414F4330410B120A124A4FF8
:107F4000B0124A684B4FB012987E4F9305244F4BA6
:107F5000B0125C684F43063C4F4BB0125C684F4A0E
:107F6000B012184E3A413B4130410B120A124A4FAF
:107F7000B0124A685B435A925B2701244B43B0120C
:107F80005C684F4B3A413B413041B0124A68F2F0D5
:107F9000FBFF1D00B0125C683041B0124A68F2F07D
:107FA000BFFF0200F2D040000000B0125C68B012C7
:107FB0001C7E30414E4EC243461B8243E01A824F24
:107FC000D826824E0E2F8243042F0E930324B01224
:107FD0009A7F043C7F400700B01264684F433041F1
:107FE0000B120A1209120A4F494EB0124A684B4F3F
:107FF000B012987E4F9305244F4BB0125C684B43F0
:108000001F3C4F4BB0125C68B2407F00481B7F4062
:108010007F00B012184E4B4F4E49C243461B82435D
:10802000E01A824AD826824E0E2F8243042F0E93E6
:108030000324B0129A7F043C7F400700B0126468AA
:108040004F4B39413A413B413041B0128A7F5E4348
:108050001F424C18B012E07F30410B124B4FB01250
:108060004A68C24BA611B0125C687F401400B0127F
:1080700064683B4130410B124B4F9243A411C24301
:108080008A18B012B27E4F4BB0125A803B41304139
:108090000B124B4FB0124A684E4BCE435A27B012C8
:1080A0005C683B413041B0124A68E2D21D00B01218
:1080B0005C6830410B120A1209124B4FB0124A6829
:1080C0004A4FC29B4D110424B0125C685F43493C87
:1080D000F2434D115B42D2114B9306204F43B01235
:1080E0009080B012B27E353C4C43494B021232C2F2
:1080F0000343C24C3001F240CDFF38011E423A0129
:1081000032418E1012C34E1012C34E104D4E4D5DB3
:108110004D5D4E5D4C8E4E4C4F4C0D497CF00F002A
:108120004C9303240D117C53FB3F1DF31724C24EC7
:108130004D111E434D4F7DF00F004D9303240E5EF5
:108140007D53FB3F4BCEC24BD2117F400600B01295
:1081500064684F4AB0125C684F43033C4C4E5C531A
:10816000C53F39413A413B4130417F400300B012A5
:10817000B4804F4330410B120A1209120812071241
:1081800006120512B0124A68454F3C404E830D431B
:108190001E42D41A1F42D61AB01248C6074D084EC6
:1081A000094F0E4C0F4712C30F100E10085E096FD7
:1081B0000993053438F339F0FF7F18530963824877
:1081C000D41A8249D61A4F45B0125C680E480F493E
:1081D000354136413741384139413A413B413041DF
:1081E0000B120A120912B0124A68494F1B42DE1ADA
:1081F000B01292500A4F1F4280015FF304241B53B8
:10820000B01292500A4F0C430D430D4B0E4A0F43D0
:108210000A4C0B4D0ADE0BDF4F49B0125C680E4A68
:108220000F4B39413A413B4130410B120A120912BE
:108230000812B012E081084E094F1E4250181F422A
:1082400052180A4E0B4F1A52B8181B62BA18099FDF
:1082500009280220089E06280B9F102809200A9E44
:108260000D28063C0B9F04280F9B27280A9E252CCF
:10827000099B04280B992128089A1F2C0C4A0D4BA6
:108280000C880D790D9303203C90018018280E482E
:108290000F493E5000800F63824E5018824F521893
:1082A0000E4C0F4D3E5000803F63824EB818824FF7
:1082B000BA183C4000800D430A3C0C430D43824AEF
:1082C0005018824B52188243B8188243BA180A4C8D
:1082D000B01292500E4F0E880E9A052C0C4A0C8E3E
:1082E0003C900300062CB01292502F53824F9601FF
:1082F000033C0C5F824C9601B2F0FEFF8601B2D0C7
:1083000010008601384139413A413B4130410B125E
:108310000A120912081221830A4E0B4FB012E08193
:10832000084E094FB0124A688248501882495218C4
:10833000824AB818824BBA18814F0000B0122A82C4
:108340002F41B0125C682153384139413A413B41D9
:1083500030410B12B0124A684B4FB01276810D4E6D
:108360003E4046000F4DB0120EC70E4F3E500B0060
:10837000824E4C300F43B0120E834F4BB0125C68EC
:108380003B4130410B120A12B0124A684A4FB29276
:10839000A41112207F400900B0123A7FB0126A8106
:1083A000B012A6809243A4117F400300B0125A80FD
:1083B0004F4AB0125C682F3CB0128A7FC293523091
:1083C00003247F400500013C6F42B0123A7F4E4FBC
:1083D0003EF205204F43B0123A7F3FF204205B4348
:1083E0003F400300033C4B433F400500824FA41134
:1083F000B012A6804F4AB0125C684B930724C24368
:108400006418B0126A81B0125283053C3E404001AC
:108410000F43B0120E833A413B4130410B120A1216
:108420000912494F0A4EB0124A684B4FB012987E5B
:108430004F9305244F4BB0125C684F430D3C4F4B9C
:10844000B0125C684F49B012184E0F4A8F10B0122C
:10845000184E4F4AB012184E39413A413B41304113
:108460000B120A12091208120712084F4A4E074D42
:108470004B4CB0124A68494FB012987E4F93052476
:108480004F49B0125C684F43213C4F49B0125C68C1
:108490004A4A0A584F4A7FD080FFB012184E494FBF
:1084A0000E4A12C30E104F4E7FF0C0FFB012184E8E
:1084B0004A4B093C4E4B0F4A0F8E0E4F0E576F4ED4
:1084C000B012184E7B534B93F5234F493741384137
:1084D00039413A413B4130410B123150F4FFB01267
:1084E0004A684B4F3D423E4062270F41B012B0C731
:1084F0001E42C01AC14E08008E10C14E09001E4215
:10850000441BC14E0A008E10C14E0B004F4BB012DF
:108510005C687C400C000D414E433F406001B0124E
:10852000608431500C003B4130410B120A12091299
:1085300008120712B0124A68474F1A42E4241B423D
:10854000E624B01292500D4F1F4280015FF30524C4
:108550001A530B63B01292500D4F12C30D1012C379
:108560000D1012C30D1012C30D1012C30D10084DC3
:1085700009430E4A0F4B4FEA0FEA8F104E4E8E10F2
:108580000E5E0F6F0E5E0F6F0E5E0F6F08DE09DF5F
:108590004F47B0125C680E480F49374138413941A6
:1085A0003A413B4130410B12091208124B4F084D22
:1085B000094EB0122A854B4B0B5B0C4B0C5C0C5CD0
:1085C0000C5B3C5050258C4E00008C4F02008C48B8
:1085D00004008C4906005F4C08007FF0FEFF6FD35B
:1085E000CC4F08006F43B0126468384139413B41B9
:1085F00030410B120A120912494F0B4EFE40600027
:108600000400FE4010000B001A4E08004E4A8E1067
:108610008A104A4A0ADE1F4B0200B01262470A1251
:108620000F124F490F12301238D5B0120ECA315204
:10863000094B39501C003E4080000F49B0128C5449
:108640000A4FE2B3BC250D430D6D4D9307203D400D
:1086500010270E437F400A00B012A6850F49B012C2
:1086600044554F930824FB931C0005243F406DD5CF
:10867000B01262D23D3CBB90FE801C000A24FB93EA
:108680001C0027205F4B1D003FF00F003F900300B0
:1086900020340A930324CA9314001D3830129CD549
:1086A000B0120ECA21530F49B0124C573F400A0076
:1086B000B012F6C5DB430B00FB931C0004240D4BEA
:1086C0000E495F43123C0D430E4B0F49B0128269B5
:1086D000103C0A930D243F40BED5B01262D20D4B20
:1086E0000E4A3E5016005F4A2600B012B075013C9B
:1086F0005F4339413A413B4130410B120A120912A2
:1087000008120B4F1E4F02002A4EAE9202001D2887
:10871000FF903A000A0019208A430200094F2952AB
:108720007D403A000F49B0126448084F7D403A003E
:108730001E4B02000F49B01264480E4F8E104E4E71
:108740004F488F100EDF8A4E02000E4B7F403A00DA
:10875000B012F285384139413A413B4130410B1268
:10876000091208124B4F084D094EB0122A854B4B87
:108770000B5B0C4B0C5C0C5C0C5B3C5050258C4E2A
:1087800000008C4F02008C4804008C490600FCD08D
:10879000030008006F43B0126468384139413B411F
:1087A00030410B120A12F2F0FDFF62259242861848
:1087B000EE2E92428818F02E12C31210F02E1210D4
:1087C000EE2EB01276811A42EE2E1B42F02E0C4A8B
:1087D0000D4BB01286C70D4E0E4F0D5A0E6B824DCB
:1087E000EE2E824EF02E5F43B0125E873A413B413F
:1087F0003041F2F0FDFF62252F435E423B117E5374
:108800007EF00F004E9303240F5F7E53FB3F824F99
:1088100086188F108F118F108F11824F8818C243C6
:108820003D11C243C011C293C8110224B012A287E5
:1088300030419253B811C243E211B2432011B24306
:108840001E11B2435411B012DA51B012F287304106
:108850000B120A12091208120712061205123F40E3
:10886000DE180D430D3C021232C20343824D320129
:10887000B240180038011F423A0132413F50DE1821
:108880004E4DCF9316000A203D90140005241D5331
:10889000BF931000E823023C7E401400194F1400DF
:1088A0001F4F10007E9014000720B2432011B243E6
:1088B0001E11B01232887D3C1A421C114D4A021220
:1088C00032C20343824D3201B240180038011C42CB
:1088D0003A0132413C50DE181B4C0E004D4B8D10BE
:1088E0008B104B4B0DDB0D930B241B4C10000B5BC3
:1088F0000D4B0D5D0D5D0D5B1D5C1400824D1E1159
:108900000F5F0D4F0D5D0D5D0F5D0F594D4E0D9AB3
:108910000220824F1E11494E595315422011164212
:108920001C111C421E112E3C4749021232C2034345
:1089300082473201B240180038011B423A013241ED
:108940003B50DE18CB9316001524184B10000A4834
:108950000A5A0D4A0D5D0D5D0D5A1D5B14000D9FE9
:10896000092C0895072C38930524079608200C4DF0
:108970000F4D063C4D4E0D9604200C4F023C0F4D02
:108980004E49595379901400CF2B824C1E114D4EF5
:10899000021232C20343824D3201B2401800380144
:1089A0001D423A013241BD93EE180B20B240140033
:1089B0001C111F421611B0126457B24316114F43D7
:1089C0004D3C19421C110B4F0B5B0D4B0D5D0D5DAA
:1089D0000A4B0A5D3A5005000B4C0B5B0D4B0D5DCD
:1089E0000D5D0D5B0A9D13280C9311244D49021255
:1089F00032C20343824D3201B240180038011D4299
:108A00003A013241CD93F41802240F4C4E49824F63
:108A10001E114E4E824E1C11021232C20343824E70
:108A20003201B240180038011B423A0132413B503A
:108A3000DE180D4B0E430F43B0127676824F16119F
:108A4000929B0E00DA1A0624D24392117F400F0047
:108A5000B0126468924B0E00DA1A5F43354136411A
:108A60003741384139413A413B4130410B120A12FA
:108A7000091208121C4254111F421C113F9014008D
:108A80000320B2432011233C4F4F021232C2034352
:108A9000824F3201B240180038011F423A01324180
:108AA0003F50DE18924F14001A111E4218111F4F2A
:108AB00010000F5E824F20110F9E022CB243201136
:108AC000C29392110424C24392115E43013C4E436F
:108AD0001F422011824F54114E9304201D42521107
:108AE0000F9D032C824F5211553C0C9F0E2C1E42A1
:108AF00050110F8D0E9F092C0E930724B243541171
:108B0000B2435211B0123288453C5F421C1102122E
:108B100032C20343824F3201B240180038011F4273
:108B20003A0132413F50DE18B012B465484F3B4025
:108B3000F4184A43CB9300002724194254118B990F
:108B4000FAFF2228CB4300005C42E2117C53C24C66
:108B5000E2111D4BF8FF0E4D8E104E4E4D4D8D10F7
:108B60000EDD0E1209121B12FAFF4E4C0E123012BD
:108B7000E3D5B0120ECA31500A004A9805207F4052
:108B80000300B0126468063C5A533B5018007A90B8
:108B90001400D023384139413A413B4130414F4FD5
:108BA000021232C20343824F3201B2401800380130
:108BB0001E423A013241CE43F4185D42E2117D5328
:108BC000C24DE211021232C20343824F3201B2405F
:108BD000180038011E423A0132413E50DE181E1282
:108BE0001200021232C20343824F3201B240180017
:108BF00038011F423A0132413F50DE181F12140063
:108C00004F4D0F123012FFD5B0120ECA3152C2931F
:108C1000E2110220B012F28730410B120A1209123F
:108C20000812071206123150F0FF0B4F2A4F3D4039
:108C300010000E430F41B012A4C9B140FE800000E5
:108C40000A12131230121BD6B0120ECA315006008F
:108C50000A939A243D420E4A0F413F52B012B0C7C8
:108C60005C4B03000C5C0D4C0D5D0D5D5E4B040018
:108C70000F4C0F5DB01216C7084F301238D6B01225
:108C80000ECA21530F41B0124C5712125411081240
:108C90001212681130124AD6B0120ECA31525F4217
:108CA0001C11021232C20343824F3201B24018003B
:108CB00038011F423A0132413F50DE18B012B4650C
:108CC000474F92926611541158243940F4180B43BF
:108CD000464BC99300001524021232C20343824B53
:108CE0003201B240180038011C423A0132413D4085
:108CF00010000E410F4C3F50DE18B01290C70F937A
:108D000007241B53395018003B901400E123353CD5
:108D1000021232C20343824B3201B24018003801C2
:108D20001E423A0132413E50DE181D4E14000D5DC8
:108D30000D5D0C480C5D0C5C3E400A000F4CB012FF
:108D4000F4C6021232C20343824B3201B240180011
:108D500038011E423A0132418E4FF2183F901F00F7
:108D60000A284F4BB0129E8B46970520C293E21102
:108D70000224B0125088B0126C8AF2900300B2182C
:108D8000032C0F4AB012E2643150100036413741D3
:108D9000384139413A413B4130410B120A12091224
:108DA0001D4228111E422A117F400600B012A685DE
:108DB0001A422C111B422E11B01276810F4E3E40EA
:108DC0006400B0120EC70C4F0D430E4D0D4C0D5AE2
:108DD0000E6B6F42B0125E87E2B38A250F430F6FAE
:108DE0004F932120B0125C671F9266111C24B012B1
:108DF0007681094E1A4230111B4232113C400A0062
:108E00000D430E4A0F4BB01250C70C4E0D4F0E497A
:108E10000F43B01286C70D4E0E4F0D5A0E6B7F409A
:108E20000500B0125E874F4339413A413B41304122
:108E3000C293C8110220B0123E76B0129A8DD2436E
:108E4000AE114F4330410B120A1209120812B01230
:108E50002A85084E094F1E42401B1F42421B0A4EE4
:108E60000B4F1A52E41A1B62E61A099F09280220C6
:108E7000089E06280B9F102809200A9E0D28063CF4
:108E80000B9F04280F9B27280A9E252C099B04284A
:108E90000B992128089A1F2C0C4A0D4B0C880D7930
:108EA0000D9303203C90010418280E480F493E50B2
:108EB00000040F63824E401B824F421B0E4C0F4D2D
:108EC0003E5000FC3F63824EE41A824FE61A3C405B
:108ED00000040D430A3C0C430D43824A401B824B65
:108EE000421B8243E41A8243E61A0A4C0A5A0A5A7F
:108EF0000A5A0A5A0A5AB012925008580858085882
:108F0000085808580E4F0E880E9A042C0A8E3A9074
:108F10000300062CB01292502F53824F9201033C53
:108F20000A5F824A9201B2F0FEFF8201B2D01000C5
:108F30008201384139413A413B4130410B12B01274
:108F40004A685B427527B0125C680F4B0F5F0F5F7A
:108F50000F5B3F502E010E4F3ED000407F40180067
:108F6000B0121C843B4130410B12B0124A684B4F87
:108F7000C293B51804241E43C293A42F01200E43AC
:108F80004E4E8E100E5E0E5E0E5EC293C31A042409
:108F90001D43C293602701200D433ED0E2220D5DA8
:108FA0000D5D0D5D0D5D0EDD7F401100B0121C8466
:108FB0004F4BB0125C683B4130410B120A12091250
:108FC0001B42C61A5A4B7E004A9302207A401F0069
:108FD000B0128A7FC29AB41807244E4A3ED0E0806D
:108FE0007F401500B0121C84C24AB418694BB012FD
:108FF0004A684A4FB012987E4F9304244F4AB012E9
:109000005C68203C4F4AB0125C68B2403E00481B8E
:109010007F403E00B012184E4F497F534F4FC2431E
:10902000461B824BE01A8243D826824F0E2F824382
:10903000042F0F930324B0129A7F043C7F40070053
:10904000B012646839413A413B4130410B124B4FF9
:10905000B0124A68C24B5B27B0125C683B4130419A
:10906000B0124A68F2F0BFFF1D00B0125C683041D8
:10907000B0124A68F2D040001D00B0125C68304166
:109080000B122183B0124A684B4F8243A411B2F0F5
:10909000EFFF8601B2F0EFFF8401F2F0FDFF1F0049
:1090A0007F400300B012B480B012A6804F4BB012C4
:1090B0005C68B0124A688243AE18814F0000B0125B
:1090C000EE51B012A680F2F0FEFF2500F2F0FEFF96
:1090D00023002F41B0125C688243D411B01260901B
:1090E000B0124A68F2F0DFFF1D00B0125C68B012E7
:1090F00070907F401300B012646821533B413041AF
:109100000B120A12F2F0FDFFA8256F42B0129080F8
:109110001A42D21A5F4A88008F105E4A89000FDE19
:109120000F9307241F42322ECA4F89008F10CA4F57
:1091300088006F43B012908082938E2F64245F4228
:109140009E110F5F1B4F1A2EC2435427E293251125
:1091500021206F43B0126A7F4F9307247F400300A2
:10916000B0124C90B0128090123CB0126A7F4F93B4
:109170000E206F42B0126A7F4F9305247F40030098
:10918000B0124C90043C7F400300B0126A7FD2437F
:109190002511263C2E4B5F4A88008F105FDA89002C
:1091A000CE5F03002F4BDF530400CA9380001120D1
:1091B0005F4A88008F105E4A89000FDE0F1230125E
:1091C00058D6B0120ECA21522F4BDF4305002F4B49
:1091D000053C2F4BDF9F020004000220B0121A8CC6
:1091E0002F4BB012AC641F4B0200B0127C640F4BCB
:1091F000B0124C64C2939A110224B0125E657F4093
:109200001100B01264683A413B4130410B124B4FA0
:10921000B0124A684E4B3E505A27CE9300000420AD
:10922000DE4300004B43013C5B43B0125C684F4B94
:109230003B4130415F43B0120C924F931920B01262
:109240004A688293D4110324B0125C681B3C924399
:10925000D411B0125C68B0124A68F2D020001D0030
:10926000B0125C683E4014000F43B0120E830A3CFB
:109270006F43B0126A7F4F930A205F43B0126A7F38
:109280004F9302244F4330417F40050030417F40DF
:10929000090030410B120A124B4FB0124A684A4F74
:1092A0004F43B0120C924F932F20C24B4D11C293DB
:1092B0004A113C20F2900300D01138207F40060074
:1092C000B01264682C3CD243D011C2437427B01250
:1092D0005069253CC293742722241E43F293E81A56
:1092E0000420C2934B1101240E430E931820F293D5
:1092F0004C110320C2434C11043C5E424B11CE433F
:10930000E81AC2434B110B3C1E434D4B7DF00F003E
:109310004D9303240E5E7D53FB3FC2DED2114F4AB4
:10932000B0125C684F433A413B413041C293D01187
:10933000D123C93F0B12B0124A684B4FC2934E3033
:109340000424B0125C685F43113CD2434E30A292B9
:10935000D41104205F43B0129492043C7F40050076
:10936000B01264684F4BB0125C684F433B413041D0
:109370000B12B0124A684B4F5F43B0121463F2F005
:10938000DAFF70005F43B0121463F2F03F00040094
:109390003E401B00FEF0EFFF0000FEF0DFFF00008C
:1093A0003D4064116F4D7FD00500C24F7000D24D1B
:1093B000010071001D426211C24D74008D104D4DAF
:1093C000C24D7500C2437300EED30000EED2000020
:1093D000FED20000F2D0400004004F43B0121463EC
:1093E000F2F03F000200F2F03F0000004F4BB012DD
:1093F0005C683B4130410B120A124B4FB0124A6875
:109400004A4F4F43B0120C924F9306244F4AB0126A
:109410005C687F4005001E3CC2934A111E20F290FA
:109420000300D0111A200B3CE243D011C243742731
:10943000B0125069C2934A110620B0127093C24B09
:109440004D114B43033CC243D0110A3C4F4AB0126A
:109450005C684F4B3A413B413041C293D011E42705
:109460004F43B01290805B43F13FA243AE18D2430A
:10947000DC18E2924D1105246F42B012F6934F931F
:109480000320B0124A8030416F42B01294923041B2
:109490000B12B0124A684B4F8293AE181824C24385
:1094A000DC185E42B6184E930324F2B22000052069
:1094B000D2B3200008204E9303247E53C24EB61828
:1094C000B0126A94073C9243AE18C243B6186F427A
:1094D000B012B4804F4BB0125C683B413041B012C7
:1094E000EE51B012A680B0128A7F7F42B0123A7F4E
:1094F0007F42B0123A7FB012A6806F42B012B480A1
:10950000B012909430410B120A120912081207127D
:109510001742D826C293461B022430400A981F42A5
:10952000481B3FB0400002203040A0977FF0BFFFB3
:109530007F903F00022430400A981B424C186E4B2B
:10954000C24EB0181F42AE183F90050039243F901C
:10955000060084242F93022430409097B2400500E7
:10956000AE185D4282184D9E27242628F2B22000B4
:109570000820D2B3200005204F4E7FE34F5DC24F3D
:1095800082187E907E00182C4E930E240F4B1F5392
:109590007E9203287E400700033CB2400600AE18CE
:1095A000B012B47F30400A98C243DC18B012A680D3
:1095B0006F42B012B480E93CB012DE9430400A9899
:1095C000B2400600AE18C293C31A4124C29360276A
:1095D0003E205F4B02008F105E4B01000FDE3FF01C
:1095E000200035245A4B07008A105F4B06000ADF23
:1095F000B0124A681942441BB0125C680A990824E8
:109600005F4B07008F105E4B06000FDE3F931F205D
:109610005F4B02008F105E4B01000FDE3FF0070032
:109620001F931520B012A680B0128A7F7F400A00D7
:10963000B0123A7FB012A680B0128A7F5E42B01894
:109640007E50F9FF0F4B3F52B012E07FDE3C5E428E
:10965000B0187E50F9FF0F4B3F52A23FB012A680C8
:10966000C293B61803206F42B012B480C293B618EA
:109670000324F2B220000B20D2B3200008245A4267
:10968000EC2E4A930424F2900B00B0180E2C1F42CB
:109690004C18CF438100CF438500CF438400CF4394
:1096A0008300FF4080FF8200373C59420C2F5A93C1
:1096B00019200F490F5F0F5F3F50402E284F1C4F5E
:1096C00002001D424C18CD4885000E4C0F488F10EB
:1096D0008E104FEE0FEECD4F8400CD4C83008C10DA
:1096E000CD4C8200195379F00700C2490C2F7A53F0
:1096F000C24AEC2E11241F424C18CF438100CF43A5
:109700008500CF438400CF438300FF4080FF820069
:10971000C2430C2FC243EC2E5F42B0180F5BCF93B5
:1097200000003334079331245F4B02008F105FDB5E
:1097300001007FF007001D424C186F931F201F424D
:10974000C61A0F932224B2900700A4111E20DF9D99
:10975000030003001A20B2F0EFFF86016E4DDF43D5
:1097600080000E5DDF4EFFFF7C006E4E7EF07F00BE
:10977000CF4E7D004F43B0127680073C5F930520AB
:109780007F401500B0126468403CB01290943D3C9C
:10979000C243DC18B012A6806F42B012B480353CD0
:1097A0007F903E003220B012A680B292A411112008
:1097B000B0128A7F7F400900B0123A7FB012A680B3
:1097C000B0126A819243A4117F400300B0125A8004
:1097D0001C3CC29352300520A242A411B0128483D3
:1097E000143CB0126A81B2400300A411B012768119
:1097F0000F4E3E403601B0120EC70E4F3E500B00CA
:10980000824E7E180F43B0120E83374138413941E2
:109810003A413B4130410B120A120B4FB0124A68D9
:109820004A4F6F43B0126A7F4F9305204F4AB012E0
:109830005C685F43523C6F42B0124C90824BA01D5B
:109840004F4AB0125C685F4B02008F105E4B010004
:109850000FDE3FF020CC4E4F3ED041008F104F4FD7
:109860008F100EDFCB4E01008E10CB4E0200CB438B
:109870008000CB437C00CB437D00CB438500CB43B2
:109880008400CB438300FB4080FF8200D2435F27EC
:109890001B42A01DB0124A681E42A4113E9202242F
:1098A0001E930324B0125C68173CA243A411D24358
:1098B0005230824BC61AC2436418B0125C687F40B3
:1098C0000300B012F6934F9305247F400300B012BB
:1098D0009492023CB012BA8F4F433A413B4130411F
:1098E0000B120A12091208120712061205127F92B1
:1098F000022830408E9C4F4F0F5F104F82D61F4280
:1099000082018F105FF304241F42920130408E9C2D
:10991000B2F0EFFF82018293E41A08208293E61AE4
:1099200005205F43B012646830408E9CB012468EB2
:1099300030408E9C1F4284018F105FF30220304024
:109940008E9C18429401B2F0FEFF8401B2F0FDFF3C
:109950008401B012E0810C4E0C880D43064E074F77
:10996000068C077D1F42A4113F90050004243F9000
:109970000600BC209A3CB2400600A411D243D8187D
:10998000C243A2116F43B012A4501C42C61ACC4667
:1099900085000F460D478F108D104FED0FEDCC4F0A
:1099A00084000F47CC4783008F10CC4F8200CC93AC
:1099B00081006424654C7550FBFF4945095C6D4985
:1099C0000A430B430B4D8B100C430D435D490100C3
:1099D0000CDA0DDB5A4903000B430CDA0DDB5A4954
:1099E00002004BEA0BEA8B104A4A8A100CDA0DDBB4
:1099F0000C860D77C94C03000A4D8C108A104CEA76
:109A00000CEAC94C02000F4DC94D01008F10C94F1F
:109A10000000B0128A7F6C420D494E450F43B012D0
:109A20006084B012A6806F490C430D430D4F8D101A
:109A30000A430B435B4901000CDA0DDB5A49030072
:109A40000B430CDA0DDB5A4902004BEA0BEA8B1090
:109A50004A4A8A100CDA0DDB0C560D67C94C03001C
:109A60000F4C0C4D8F108C104FEC0FECC94F0200B7
:109A70000F4DC94D01008F10C94F00001D42C61A7D
:109A80005F4D02008F105D4D01000FDD3FF02000A3
:109A90000224D2438A18B0126A81B2F0EFFF860125
:109AA000E2B31C00022430408E9CC243D8185F43AE
:109AB000B012A4501D42C61A5F4D02008F105D4DBA
:109AC00001000FDD3FF020000924B2400700A4117F
:109AD0003E4000010F43B0120E83033C4F43B012CF
